:10000000000001308A0005293E0840068039C20000
:10001000BE1F0F28BD09BE09BD0A0319BE0AC01FB5
:100020001628BF09C009BF0A0319C00A1030C10051
:10003000F701FA01BE0CBD0C031C24283F08F7078A
:100040000318FA0A4008FA07FA0CF70CF90CF80C36
:10005000C10B1A28C21F3128F809F909F80A031937
:10006000F90A08003F080739F7003F0CF800F80CC0
:10007000F80C1F30F80578084107840083134218F4
:100080008317F801F80AF70A4628F80DF70B4528F8
:10009000C00803194E28780880045128F809780808
:1000A000800508002108BE002008BD00C001023004
:1000B000BF0004207908FA00780839078400831308
:1000C0003A188317840A0008BE0084030008BD00A4
:1000D000BF00C001C201C10132203D08BF00C00104
:1000E000C2018030C10032203B082007F8002108FF
:1000F000FA003C0803183C0FFA077808083EBD00D8
:100100007A08BE000318BE0A3E08C0003D08BF00C2
:10011000C2010830C100400842068039C400C01F37
:100120009628BF09C009BF0A0319C00AC21F9D282B
:10013000C109C209C10A0319C20AF801F901F7018C
:10014000FA014208031DA72841080319C1281030ED
:10015000C3000310BF0DC00DF70DFA0D42087A025F
:10016000031DB42841087702031CBD284108F7028B
:10017000031CFA034208FA020314F80DF90DC30B2D
:10018000A928C41FC828F809F909F80A0319F90AA7
:100190007708A0007A08A1002108BE002008BD0051
:1001A000C0010230BF0004207908FA00780839073E
:1001B000840083133A188317840A0008BE0084035E
:1001C0000008BD00BF000130C000C201C1013220E3
:1001D0003D08BF00C001C2018030C1003220872924
:1001E0003C30840083130008031904290130F8000F
:1001F000F701F70BF928F80BF8284A30F700F70B4E
:10020000FF280229800BF628080003081F39830005
:1002100083168E158312A101A00107309F0083135E
:100220003730A200A3013630A400A5013530A60066
:10023000A7013430A800A9013330AA00AB01323045
:10024000AC00AD013130AE00AF013030B000B101D3
:10025000FF30B300B200B5010130B400B7010A307D
:10026000B600381083168514831285184429350882
:10027000BE003408BD00FF30C000BF000420790874
:10028000B3007808B20048293508B3003408B2003A
:100290008316051583120519552936080319B70366
:1002A000B603B71F5529B701B6018316851583120A
:1002B00085196929B60A0319B70AB71B6929B7084E
:1002C000031D66293608C83C03186929B701C830E0
:1002D000B600831605168312051A702938147F2973
:1002E000381C7F2938103508BE003408BD00FF30A7
:1002F000C000BF0004207908B5007808B400BA0136
:100300002230B9003308BC003208BB00522837083D
:10031000BE003608BD00C0011930BF0004207908B6
:10032000BA007808B9003A08BB00BB0ABB0303193E
:100330009D29FF30BC00F02096293908BC00F02030
:040340003229A12994
:02400E00183F59
:00000001FF
;PIC16F628A
;CRC=2470  CREATED="29-ago-17 01:30"
