:020000040000FA
:100000000128831603138601FF30850080308100AC
:1000100000308B0083120313013086001430F3008C
:10002000F401051E4328741C16281928851C342841
:100030002F28851C2F283428051D3928851D3E288A
:100040007308F2002628F20B222811286430F100F0
:100050006430F000F00B2A28F10B28282328860DA5
:100060000318061403101C28860C031886170310A7
:100070001C28F30B1E280130F3001E28F30F202844
:10008000FF30F3002028051E4328741848284A280A
:080090007410132874141328E6
:02400E00613F10
:00000001FF
