:020000001028C6
:10000800FE00030EF2000408F3000A08F40083124D
:1000180003137F08F500352B1128F8018301CA283E
:1000280083120313B9002F30B1003108B400013036
:10003800AE07FF302E0784004022B1003108BA0015
:100048003A080319C52825303A06031937283A080B
:10005800B100390884003108831380000130B100F1
:100068003108B9071B28B5010130AE07FF302E074C
:1000780084004022BA00003A0319C528643A0319DB
:1000880049280D3A031949281B283408840083138A
:100098000008B700840A0008B8000230B10031082F
:1000A800B407B81F60280330B1003108B504B70998
:1000B800B809B70A0319B80ABA01BA0A05303A06E4
:1000C80003197F283A08B1003107013E8400402215
:1000D800B2004022B30033083802031D75283208E5
:1000E8003702031C7F280130B1003108BA070530F8
:1000F8003A06031D66283508033903198E282D3062
:10010800B100390884003108831380000130B10040
:100118003108B9073A08B1003108B600FF30B1001C
:100128003108B607360A03191B280A30A800003020
:10013800A9003608B1003107013E84004022A00022
:100148004022A1003808A3003708A200F821831232
:1001580003132108AB002008AA00A122831203136D
:100168002808303EB2003208BA003A08B10039080F
:1001780084003108831380000130B1003108B907C9
:10018800922839088400831380010800831603131A
:100198008501F030860083120313860185018B17D1
:1001A8000B178B15831603130C14831203131014E7
:1001B800901010169016A321782383120313CE01F2
:1001C800CF010B30B2008030B3006C2202308312B2
:1001D8000313AF000030B0000130B1000030B200AE
:1001E80009231B3083120313BB003B08AE004F08E2
:1001F800B0004E08AF003C3014203C30831203138B
:10020800B2000030B3006C22781D39297811013012
:1002180083120313CE070318CF0A0030CF077823C1
:100228000B3083120313B2008030B3006C2202300B
:1002380083120313AF000030B0000130B10000306A
:10024800B20009231B3083120313BB003B08AE0026
:100258004F08B0004E08AF003C3014203C308312E9
:100268000313B2000030B3006C22F81C0829F81000
:10027800781C442978100230831203138606082953
:1002880078140829831203132808A1002708A0005E
:100298000030A200A300612383120313201C5829F5
:1002A8008312031305145B2983120313051028080E
:1002B800A1002708A0000130A2000030A30061239C
:1002C80083120313201C6C298312031385146F29CE
:1002D8008312031385102808A1002708A000023004
:1002E800A2000030A300612383120313201C80297D
:1002F8008312031305158329831203130511280894
:10030800A1002708A0000330A2000030A300612349
:1003180083120313201C942983120313851597292C
:100328008312031385110615023083120313A900E3
:10033800A90B9C299F298312031306110800831215
:100348000313051085100511851186110611143047
:1003580083120313B2007930B100B10BB129B20B8B
:10036800B1290000033083120313A7000030A8004E
:100378004621073083120313B2007C30B100B10B61
:10038800C329B20BC329C829023083120313A7005B
:100398000030A8004621C73083120313B100D429C6
:1003A800B10BD329D7290000003083120313AA0008
:1003B800AB002830AC000030AD00D52200308312ED
:1003C8000313AA00AB000C30AC000030AD00D522FE
:1003D8007823003083120313AA00AB000630AC0068
:1003E8000030AD00D522080083120313A501A60131
:1003F800200821040319312AA701A70AA11B102AE2
:1004080001300310A00DA10DFF3E031D052A013088
:10041800A4002408A707022A01300310A50DA60D81
:10042800FF3E031D112A21082302031D1D2A20084F
:100438002202031C262A2008A2022108031CA30367
:10044800A302251401300310A10CA00CFF3E031DCC
:10045800272A0130A702031D102A2608A100250813
:10046800A0000800FF1B402A83137F188317000889
:10047800840A0319FF0A080002308A000408840A63
:1004880082070034013400340A3400346434003400
:10049800E83403341034273449346E347434653402
:1004A80072347234753470347434203450344F34A8
:1004B800523454344234003443346F3475346E3417
:1004C8007434653472343A34203425346434003456
:1004D80083120313B701B80137083207B500330890
:1004E800B4000318B40AB71BB40383120313340807
:1004F800B6003608FF00350884003622003A031992
:10050800080037083207B5003308B4000318B40AE6
:10051800B71BB403831203133408B6003608FF0070
:100528003508840036228E23013083120313B7075F
:100538000318B80A0030B807702A83120313280872
:1005480029040319D02AAD01AD0AA91BB72A013025
:100558000310A80DA90DFF3E031DAC2A0130AC0005
:100568002C08AD07A92A29082B02031DBD2A280833
:100578002A02031CC52A2808AA022908031CAB035F
:10058800AB0201300310A90CA80CFF3E031DC62ABC
:100598000130AD02031DB72A2B08A9002A08A800BC
:1005A8000800831203132A1CDD2A831203138615FD
:1005B800E02A831203138611203083120313AE003E
:1005C800AE0BE42AE72A8312031306112C0E0F3907
:1005D800A7002D0EF039A7042D0E0F39A800F03012
:1005E800A81D0030A80446210F30831203132C05E0
:1005F800A70000302D05A80046210C3083120313F4
:10060800AE00AE0B052B082B080083120313B301B1
:10061800B4012F033004031D152B8030B3000030C4
:10062800B40002302F063004031D1E2BC030B30067
:100638000030B40031083307B30032080318320A17
:100648003407B400FF30B3070318B40AFF30B40707
:100658000030AA00AB003408AD003308AC00D52246
:1006680008008B190B1C472B0310061A03140030C3
:1006780003180130F000F1017008F6007108F70066
:100688000B107815552B831603130C1C552B83124E
:1006980003130C1C552B0C100B308F00E0308E0010
:1006A800F81475088312FF0074088A007308840020
:1006B800720E8300FE0E7E0E090083120313220AB7
:1006C800A4002108A6002008A5006D2B260DA60C65
:1006D800A50CA40B6A2B0130831203132505A00077
:1006E80000302605A1000800003083120313AA0079
:1006F800AB000130AC000030AD00D52203308312CE
:100708000313B0009730AF00AF0B882BB00B882BCA
:100718000000080083120313B1000130AA00003062
:10072800AB003108AF00B0012F08AC003008AD00B5
:04073800D5220800BE
:02400E0042FF6F
:00000001FF
