:020000001028C6
:10000800FE00030EF2000408F3000A08F40083124D
:1000180003137F08F500AB2A1128F8018301CA28C9
:1000280083120313B9002F30B1003108B400013036
:10003800AE07FF302E0784000023B1003108BA0054
:100048003A080319C52825303A06031937283A080B
:10005800B100390884003108831380000130B100F1
:100068003108B9071B28B5010130AE07FF302E074C
:1000780084000023BA00003A0319C528643A03191A
:1000880049280D3A031949281B283408840083138A
:100098000008B700840A0008B8000230B10031082F
:1000A800B407B81F60280330B1003108B504B70998
:1000B800B809B70A0319B80ABA01BA0A05303A06E4
:1000C80003197F283A08B1003107013E8400002354
:1000D800B2000023B30033083802031D7528320824
:1000E8003702031C7F280130B1003108BA070530F8
:1000F8003A06031D66283508033903198E282D3062
:10010800B100390884003108831380000130B10040
:100118003108B9073A08B1003108B600FF30B1001C
:100128003108B607360A03191B280A30A800003020
:10013800A9003608B1003107013E84000023A00061
:100148000023A1003808A3003708A200D921831290
:1001580003132108AB002008AA00172283120313F7
:100168002808303EB2003208BA003A08B10039080F
:1001780084003108831380000130B1003108B907C9
:10018800922839088400831380010800831203131E
:100198000610831603138501F03086008B158B1724
:1001A8000B170C14831203131014901010169016CA
:1001B80084213123013083120313AF000030B000D3
:1001C8000130B1000030B2007F2283120313CD0149
:1001D800CE010B30BB003B08AE004E08B0004D0806
:1001E800AF003C3014203C30D722781D1A297811F2
:1001F80083120313061A861E0529061F0529861B66
:100208001A290130CD070318CE0A0030CE07312352
:100218000B3083120313BB003B08AE004E08B0003E
:100228004D08AF003C3014203C30D722F81CF92888
:10023800F810781C252978100230831203138606DB
:10024800F9287814F928831203132808A10027082D
:10025800A0000030A200A3001A2383120313201C5D
:1002680039298312031305143C298312031305103B
:100278002808A1002708A0000130A2000030A30030
:100288001A2383120313201C4D2983120313851488
:1002980050298312031385102808A1002708A000FD
:1002A8000230A2000030A3001A2383120313201C7B
:1002B8006129831203130515642983120313051199
:1002C8002808A1002708A0000330A2000030A300DE
:1002D8001A2383120313201C75298312031385150F
:1002E800782983120313851106150230831203132C
:1002F800A900A90B7D298029831203130611080080
:100308008312031305108510051185118611061136
:10031800143083120313B2007930B100B10B922963
:10032800B20B92290000033083120313A700003098
:10033800A8002721073083120313B2007C30B100D4
:10034800B10BA429B20BA429A929023083120313E3
:10035800A7000030A8002721C73083120313B1007B
:10036800B529B10BB429B829000000308312031352
:10037800AA00AB002830AC000030AD004B220030A2
:1003880083120313AA00AB000C30AC000030AD00A0
:100398004B223123003083120313AA00AB0006302E
:1003A800AC000030AD004B22080083120313A501F6
:1003B800A601200821040319122AA701A70AA11BD4
:1003C800F12901300310A00DA10DFF3E031DE62900
:1003D8000130A4002408A707E32901300310A50D64
:1003E800A60DFF3E031DF22921082302031DFE2945
:1003F80020082202031C072A2008A2022108031C45
:10040800A303A302251401300310A10CA00CFF3E86
:10041800031D082A0130A702031DF1292608A1009F
:100428002508A000080083120313280829040319CB
:10043800462AAD01AD0AA91B2D2A01300310A80DCB
:10044800A90DFF3E031D222A0130AC002C08AD0780
:100458001F2A29082B02031D332A28082A02031CF5
:100468003B2A2808AA022908031CAB03AB02013067
:100478000310A90CA80CFF3E031D3C2A0130AD0255
:10048800031D2D2A2B08A9002A08A800080083129A
:1004980003132A1C532A831203138615562A831220
:1004A80003138611203083120313AE00AE0B5A2AB1
:1004B8005D2A8312031306112C0E0F39A7002D0E87
:1004C800F039A7042D0E0F39A800F030A81D003010
:1004D800A80427210F30831203132C05A70000302E
:1004E8002D05A80027210C3083120313AE00AE0B94
:1004F8007B2A7E2A080083120313B301B4012F0359
:100508003004031D8B2A8030B3000030B400023061
:100518002F063004031D942AC030B3000030B40005
:1005280031083307B30032080318320A3407B4001D
:10053800FF30B3070318B40AFF30B4070030AA002D
:10054800AB003408AD003308AC004B2208008B190F
:100558000B1CBD2A0B1078150310061A0314003063
:1005680003180130F000F1017008F6007108F70077
:10057800CB2A831603130C1CCB2A831203130C1CDF
:10058800CB2A0C100B308F00E0308E00F814750861
:100598008312FF0074088A0073088400720E8300B7
:1005A800FE0E7E0E090083120313B500B301B401D9
:1005B80033083507B2003208840083130008031992
:1005C800080033083507B200320884008313000896
:1005D8004723013083120313B3070318B40A00300A
:0405E800B407DC2A4E
:1006000003308A000408840A82070034013400346D
:100610000A34003464340034E834033410342734AA
:1006200049346E347434203442343A34203425341E
:100630006434003483120313220AA4002108A600A4
:100640002008A500262B260DA60CA50CA40B232BF9
:100650000130831203132505A00000302605A100F8
:100660000800003083120313AA00AB000130AC0075
:100670000030AD004B22033083120313B0009730DB
:10068000AF00AF0B412BB00B412B000008008312D1
:100690000313B1000130AA000030AB003108AF00F5
:0E06A000B0012F08AC003008AD004B2208005E
:02400E0042FF6F
:00000001FF
