:020000001028C6
:10000800FE00030EF2000408F3000A08F40083124D
:1000180003137F08F500772A1128F801830127299F
:1000280083120313B9002F30B1003108B400013036
:10003800AE07FF302E078400C222B1003108BA0093
:100048003A080319C52825303A06031937283A080B
:10005800B100390884003108831380000130B100F1
:100068003108B9071B28B5010130AE07FF302E074C
:100078008400C222BA00003A0319C528643A031959
:1000880049280D3A031949281B283408840083138A
:100098000008B700840A0008B8000230B10031082F
:1000A800B407B81F60280330B1003108B504B70998
:1000B800B809B70A0319B80ABA01BA0A05303A06E4
:1000C80003197F283A08B1003107013E8400C22293
:1000D800B200C222B30033083802031D7528320863
:1000E8003702031C7F280130B1003108BA070530F8
:1000F8003A06031D66283508033903198E282D3062
:10010800B100390884003108831380000130B10040
:100118003108B9073A08B1003108B600FF30B1001C
:100128003108B607360A03191B280A30A800003020
:10013800A9003608B1003107013E8400C222A000A0
:10014800C222A1003808A3003708A200D1218312D7
:1001580003132108AB002008AA000F2283120313FF
:100168002808303EB2003208BA003A08B10039080F
:1001780084003108831380000130B1003108B907C9
:10018800922839088400831380010800831203131E
:100198002808A1002708A0000030A200A300DC2244
:1001A80083120313201CDC28831203130514DF2891
:1001B8008312031305102808A1002708A0000130A6
:1001C800A2000030A300DC2283120313201CF028B5
:1001D800831203138514F328831203138510280848
:1001E800A1002708A0000230A2000030A300DC22F2
:1001F80083120313201C04298312031305150729EE
:100208008312031305112808A1002708A000033052
:10021800A2000030A300DC2283120313201C18293B
:100228008312031385151B298312031385110615E1
:10023800023083120313A900A90B20292329831252
:10024800031306110800831603138501F030860096
:1002580083120313860185018B170B178B158316E1
:1002680003130C1483120313101490101016901615
:100278007C21F32283120313CE01CF010B30BB0084
:100288003B08AE004F08B0004E08AF003C301420C9
:100298003C30A322781D6F29781183120313061AA4
:1002A800861E5A29061F5A29861B6F290130CE0738
:1002B8000318CF0A0030CF07F3220B308312031341
:1002C800BB003B08AE004F08B0004E08AF003C3002
:1002D80014203C30A322F81C4E29F810781C7A29E7
:1002E800781002308312031386064E2978144E299B
:1002F8008312031305108510051185118611061147
:10030800143083120313B2007930B100B10B8A297B
:10031800B20B8A290000033083120313A7000030B0
:10032800A800CA20073083120313B2007C30B10042
:10033800B10B9C29B20B9C29A1290230831203130B
:10034800A7000030A800CA20C73083120313B100E9
:10035800AD29B10BAC29B02900000030831203137A
:10036800AA00AB002830AC000030AD0043220030BA
:1003780083120313AA00AB000C30AC000030AD00B0
:100388004322F322003083120313AA00AB00063085
:10039800AC000030AD004322080083120313A5010E
:1003A800A6012008210403190A2AA701A70AA11BEC
:1003B800E92901300310A00DA10DFF3E031DDE2920
:1003C8000130A4002408A707DB2901300310A50D7C
:1003D800A60DFF3E031DEA2921082302031DF62965
:1003E80020082202031CFF292008A2022108031C5E
:1003F800A303A302251401300310A10CA00CFF3E97
:10040800031D002A0130A702031DE9292608A100BF
:100418002508A000080083120313280829040319DB
:100428003E2AAD01AD0AA91B252A01300310A80DEB
:10043800A90DFF3E031D1A2A0130AC002C08AD0798
:10044800172A29082B02031D2B2A28082A02031C15
:10045800332A2808AA022908031CAB03AB0201307F
:100468000310A90CA80CFF3E031D342A0130AD026D
:10047800031D252A2B08A9002A08A80008008312B2
:1004880003132A1C4B2A8312031386154E2A831240
:1004980003138611203083120313AE00AE0B522AC9
:1004A800552A8312031306112C0E0F39A7002D0E9F
:1004B800F039A7042D0E0F39A800F030A81D003020
:1004C800A804CA200F30831203132C05A70000309C
:1004D8002D05A800CA200C3083120313AE00AE0B02
:1004E800732A762A08008B190B1C892A0310061A0E
:1004F8000314003003180130F000F1017008F60011
:100508007108F7000B107815972A831603130C1C33
:10051800972A831203130C1C972A0C100B308F0098
:10052800E0308E00F81475088312FF0074088A0002
:1005380073088400720E8300FE0E7E0E090083127B
:100548000313B500B301B40133083507B20032080C
:100558008400831300080319080033083507B20024
:10056800320884008313000809230130831203131F
:10057800B3070318B40A0030B407A82A02308A0067
:100588000408840A82070034013400340A34003431
:1005980064340034E83403341034273449346E3476
:1005A8007434203442343A342034253464340034EA
:1005B80083120313220AA4002108A6002008A5001C
:1005C800E82A260DA60CA50CA40BE52A01308312F7
:1005D80003132505A00000302605A10008000030FF
:1005E80083120313AA00AB000130AC000030AD0049
:1005F8004322033083120313B0009730AF00AF0BD0
:10060800032BB00B032B0000080083120313B10067
:100618000130AA000030AB003108AF00B0012F084C
:0A062800AC003008AD0043220800CA
:02400E0042FF6F
:00000001FF
