:020000001028C6
:10000800FE00030EF0000408F1000A08F200831253
:1000180003137F08F300E72B1128F90183012B292B
:1000280083120313B5002A30AE002E08B200013047
:10003800A907FF30290784003D22AE002E08B8002A
:1000480038080319262925303806031937283808AF
:10005800AE00350884002E08831380000130AE00FE
:100068002E08B5071B28B4013B28B41752280130C5
:10007800A907FF30290784003D22B800003A031978
:100088002629583A031939283C3A031952280D3AB7
:1000980003195228113A031939281B28B41B6C2854
:1000A8003208840083130008B600840A0008B700E9
:1000B8000230AE002E08B207B71FB1280330AE00D9
:1000C8002E08B404B609B709B60A0319B70AB12845
:1000D8003208840083130008B600840A0008B700B9
:1000E8000230AE002E08B207B128B801B80A0530B0
:1000F80038060319BA283808AE002E07013E8400D6
:100108003D22AF003D22B00030083702031D8E2883
:100118002F083602031CBA280130AE002E08B80793
:100128007B28B801B80A043038060319BA283808F9
:10013800AE002E070B3E84003D22AF003D22B000EA
:1001480030083702031DAA282F083602031CBA28D4
:100158000130AE002E08B807972834088039003AD5
:1001680003197928803A03199528BA2834080339DD
:100178000319C9282D30AE00350884002E088313D2
:1001880080000130AE002E08B5073808AE002E08F2
:10019800B30015290A30A3000030A4003308AE00CC
:1001A8002E07013E84003D22F4003D22F500370869
:1001B800F7003608F6007E22750883120313A6009E
:1001C8007408A5002C23831203132308303EAF00C4
:1001D8002F0809293308AE002E070B3E84003D2264
:1001E800F4003D22F5003708F7003608F6007E22B5
:1001F80074080F3983120313AF002F08B1003108B8
:10020800133E84003D22AE002E08B8003808AE0028
:10021800350884002E08831380000130AE002E08B4
:10022800B507FF30AE002E08B307330A03191B28A1
:1002380034088039003A0319CE28803A0319EE2889
:100248000A290A29350884008313800108008316C7
:1002580003138501860183120313860185018B1719
:100268000B17831603130C14831203131014901026
:10027800101690168C211824343083120313AD0005
:100288008030AE00F722023083120313AA00003038
:10029800AB000130AC000030AD0094232430831251
:1002A8000313B9003908A90000302E248312031360
:1002B8002108AB002008AA0000302E248312031363
:1002C8002108AD002008AC003A3014203A308312DF
:1002D8000313AD000030AE00F722F91C7129F910A4
:1002E800791C8A297910013083120313860600309D
:1002F8002E24831203132008013EA70021080318A7
:10030800013E003EA800003052243F29791471298B
:10031800831203130612861206138613061186101B
:10032800143083120313AD007930AC00AC0B9A295A
:10033800AD0B9A290000033083120313A300003089
:10034800A400E121073083120313AD007C30AC0018
:10035800AC0BAC29AD0BAC29B129023083120313C5
:10036800A3000030A400E121C73083120313AC00BE
:10037800BD29AC0BBC29C02900000030831203132F
:10038800A500A6002830A7000030A8006023003090
:1003980083120313A500A6000C30A7000030A800A4
:1003A80060231824003083120313A500A60006302A
:1003B800A7000030A8006023080083120313240854
:1003C800F5002308F4000030F600F7000124741C3F
:1003D800F129831203130616F42983120313061254
:1003E8002408F5002308F4000130F6000030F70077
:1003F8000124741C032A831203138616062A831207
:10040800031386122408F5002308F4000230F600CE
:100418000030F7000124741C152A831203130617F1
:10042800182A8312031306132408F5002308F4007E
:100438000330F6000030F7000124741C272A8312C9
:10044800031386172A2A831203138613861403308C
:10045800F800F80B2D2A8312031386100800FF1BDF
:100468003D2A83137F1883170008840A0319FF0A9B
:10047800080002308A000408840A82070034013424
:1004880000340A34003464340034E834033410345B
:10049800273401340034103400340034013400347B
:1004A800103430343134323433343434353436342F
:1004B800373438343934413442344334443445349D
:1004C800463400344434653463343A3420342534B3
:1004D800643420344834653478343A34203425344C
:1004E8005834003443346F3475346E34743465349E
:1004F8007234003483120313A001A1017408750437
:100508000319B72AA201A20AF51B962A0130031083
:10051800F40DF50DFF3E031D8B2A0130F800780815
:10052800A207882A01300310A00DA10DFF3E031D6C
:10053800972A75087702031DA32A74087602031CFC
:10054800AC2A7408F6027508031CF703F702201496
:1005580001300310F50CF40CFF3E031DAD2A0130E9
:10056800A202031D962A2108F5002008F4000800BD
:10057800F8007408F6007608F700831603139C1831
:10058800C12A7808FF3E9B007F30F60076089C055C
:100598000130F502750A03190800831603139C1825
:1005A800D12A77088400831300089A000130F600E6
:1005B8007608F7070130F60076089B0783120313C5
:1005C80003108B1B03148B13831603131C15553050
:1005D8009D00AA309D009C141C1183120313031C58
:1005E800CC2A8B17CC2A83120313B201B301320829
:1005F8002D07B0002E08AF000318AF0AB21BAF03D7
:10060800831203132F08B1003108FF00300884005B
:100618003322003A0319080032082D07B0002E08CB
:10062800AF000318AF0AB21BAF03831203132F08DE
:10063800B1003108FF003008840033224224013021
:1006480083120313B2070318B30A0030B307FB2A57
:10065800831203132308240403195B2BA801A80A97
:10066800A41B422B01300310A30DA40DFF3E031D54
:10067800372B0130A7002708A807342B24082602A7
:10068800031D482B23082502031C502B2308A50211
:100698002408031CA603A60201300310A40CA30C13
:1006A800FF3E031D512B0130A802031D422B2608D3
:1006B800A4002508A300080083120313251C682B37
:1006C8008312031306156B2B8312031306112030B4
:1006D80083120313A900A90B6F2B722B8312031328
:1006E8008610270E0F39A300280EF039A304280E10
:1006F8000F39A400F030A41D0030A404E1210F300C
:10070800831203132705A30000302805A400E12164
:100718000C3083120313A900A90B902B932B08000C
:1007280083120313AE01AF012A032B04031DA02B70
:100738008030AE000030AF0002302A062B04031DC3
:10074800A92BC030AE000030AF002C082E07AE0039
:100758002D0803182D0A2F07AF00FF30AE07031826
:10076800AF0AFF30AF070030A500A6002F08A80089
:100778002E08A70060230800F8007808F60076081D
:10078800F700831603139C18C52B74089B000130CF
:10079800F502750A031908009C18D02B7F30F60063
:1007A80076089C051C141A08F60077088400760859
:1007B800831380000130F6007608F7070130F60051
:1007C80076089B07CB2B831603130C1CF52B83127F
:1007D80003130C1CF52B0C100B308F00E0308E002F
:1007E800F91473088312FF0072088A0071088400E4
:1007F800700E8300FE0E7E0E0900760A8312031324
:10080800A0007508A2007408A1000D2C220DA20CEE
:10081800A10CA00B0A2C0130831203132105F4004C
:1008280000302205F5000800003083120313A500EC
:10083800A6000130A7000030A8006023033083120F
:100848000313AB009730AA00AA0B282CAB0B282C5B
:100858000000080083120313A6002608A20022083D
:10086800F4000230A3002308F5002430C0238312CB
:1008780003132508A1002408A0000800831203130D
:10088800AC000130A5000030A6002C08AA00AB017E
:100898002A08A7002B08A800602308008312031366
:1008A800AB002730A9002908F4000230AA002A0862
:0808B800F5002B08BC2208002A
:02400E0042FF6F
:0442000000000000BA
:00000001FF
