:02000000FE2FD1
:100A9A00831203131F141F139F178E308316031319
:100AAA009F0008007808F0007908F100F2018E3002
:100ABA00FB007B08F300F40109267008F8007108AE
:100ACA00F9007208FA0008007108F5007008F400CD
:100ADA00720A722D0310F50CF40CFF3E031D6F2DE4
:100AEA0001307405F00000307505F1000800F400CB
:100AFA0008307402031C842DF001F1010800C5308E
:100B0A00F2007208831203139F057408F200023080
:100B1A000310F20DFF3E031D8D2D0310720DF3001D
:100B2A0073089F040330F3009730F200F20B9B2DF9
:100B3A00F30B9B2DA02D831203131F151F19A32D31
:100B4A001E08F100831603131E08F0000800F21FA6
:100B5A00D32D0030F6000030F7008030F80070091D
:100B6A00F9007109FA007209FB00F90A0319FA0A75
:100B7A000319FB0A7908F6077A0803187A0FC62DB3
:100B8A00C72DF7077B0803187B0FCC2DCD2DF8074F
:100B9A007608F0007708F1007808F200F51FFA2DC0
:100BAA000030F6000030F7008030F8007309F900D1
:100BBA007409FA007509FB00F90A0319FA0A0319FC
:100BCA00FB0A7908F6077A0803187A0FED2DEE2D3D
:100BDA00F7077B0803187B0FF32DF42DF807760827
:100BEA00F3007708F4007808F5008030F2068030C8
:100BFA00F50675087202031D080074087102031DC8
:100C0A00080073087002080073080319112E72088D
:100C1A0071047004031D242E0030F0000030F1002E
:100C2A000030F20008000130F5007508F3070130C2
:100C3A000310F20CF10CF00CFF3E031D1D2EFE30CA
:100C4A00720503193F2E182E0130F5007508F307B7
:100C5A000130F007003003180130F10700300318A3
:100C6A000130F20701300310F20CF10CF00CFF3ED8
:100C7A00031D382EFF30720503194E2E292E01301E
:100C8A00F30201300310F00DF10DF20DFF3E031DCA
:100C9A00472EF11B542E023073020318442E731888
:100CAA005C2EFF30F0057F30F105FF30F2050310AE
:100CBA00F30C7308F500F601F70110300310F50D77
:100CCA00F60DF70DFF3E031D632E7508F004760836
:100CDA00F1047708F204740803190800F2170800EF
:100CEA004D250130831603138500860183120313F1
:100CFA00121592141214FF308316031392008312F2
:100D0A0003139715171597101710860100307C25C5
:100D1A00710883120313B4007008B3003408F10099
:100D2A003308F0000030F200F3006925701CA12E90
:100D3A00831203131716A42E8312031317123408EF
:100D4A00F1003308F0000130F2000030F3006925A9
:100D5A00701CB32E831203139716B62E8312031335
:100D6A0097123408FD003308FC000310FD0CFC0C3C
:100D7A000310FD0CFC0C7C089500E430A000A030A8
:100D8A00A1003B30A2003408F9003308F8005725C7
:100D9A00780883120313A3007908A4007A08A5002F
:100DAA002D27831203132008B0002108B10022085E
:100DBA00B2000030F0008030F1003F30F20030081D
:100DCA00F3003108F4003208F500AC25031CEF2EBD
:100DDA000130292F0030F0000030F1004030F200DD
:100DEA00831203133008F3003108F4003208F500C7
:100DFA00AC25031C022F0230292F0030F0004030AE
:100E0A00F1004030F200831203133008F300310876
:100E1A00F4003208F500AC25031C152F0430292FE5
:100E2A000030F0008030F1004030F20083120313EA
:100E3A003008F3003108F4003208F500AC25031C31
:100E4A00282F1030292F17308312031386008B2E78
:100E5A00831203132008A6002108A7002208A8006D
:100E6A000310270D280DA9002908AA002A08031D26
:100E7A00452F0030A0000030A1000030A200080079
:100E8A002308A6002408A7002508A8000310270D98
:100E9A00280DA9002908AF002F08031D5B2F003079
:100EAA00A0000030A1000030A20008002F087B3EFD
:100EBA00A6002608AA072008A6002108A7002208DB
:100ECA00A80010300310A80CA70CA60CFF3E031DA7
:100EDA00672F2608A9002908AF002308A6002408BE
:100EEA00A7002508A80010300310A80CA70CA60C10
:100EFA00FF3E031D792F2608A9002908AF06803076
:100F0A00A6002608AF05A117A417FF30A305FF30D6
:100F1A00A4050030A5050030AB000030AC0000305D
:100F2A00AD000730A6002608AE00201CAA2F230811
:100F3A00AB07240803110318240A031DAC0725086C
:100F4A0003110318250A031DAD0701300310A20C73
:100F5A00A10CA00CFF3E031DAB2F01300310A30D03
:100F6A00A40DA50DFF3E031DB32F0130AE02031DD4
:100F7A009A2F0930A6002608AE00201CD22F23087B
:100F8A00AB07240803110318240A031DAC0725081C
:100F9A0003110318250A031DAD0701300310A20C23
:100FAA00A10CA00CFF3E031DD32F01300310AD0C82
:100FBA00AC0CAB0CFF3E031DDB2F0130AE02031D50
:100FCA00C22F2B08F0002C08F1002D08F2002A0885
:100FDA00A6002608F3002F08A7002708F400092610
:100FEA00700883120313A0007108A1007208A200FE
:060FFA0008008301752EC2
:02400E0042EF7F
:00000001FF
