:02000000FE2FD1
:10061A007008831603139F009F17831603131F1373
:10062A00831203139F131F171F1408007808F00082
:10063A007908F100F2018E30FB007B08F300F40127
:10064A00CD237008F8007108F9007208FA00080052
:10065A007108F5007008F400720A362B0310F50CC5
:10066A00F40CFF3E031D332B01307405F0000030FB
:10067A007505F1000800F40008307402031C482BC9
:10068A00F001F1010800C530F20072088312031369
:10069A009F057408F20002300310F20DFF3E031D9D
:1006AA00512B0310720DF30073089F04C730F20038
:1006BA005E2BF20B5D2B612B622B831203131F152A
:1006CA001F19652B1E08F100831603131E08F0007C
:1006DA00080083120313AC1F972B0030B0000030C0
:1006EA00B1008030B2002A09B3002B09B4002C09EA
:1006FA00B500B30A0319B40A0319B50A3308B007D7
:10070A0034080318340F8A2B8B2BB10735080318CA
:10071A00350F902B912BB2073008AA003108AB0095
:10072A003208AC00AF1FBE2B0030B0000030B10061
:10073A008030B2002D09B3002E09B4002F09B5008C
:10074A00B30A0319B40A0319B50A3308B0073408FF
:10075A000318340FB12BB22BB10735080318350F24
:10076A00B72BB82BB2073008AD003108AE003208FB
:10077A00AF008030AC068030AF062F082C02031D74
:10078A0008002E082B02031D08002D082A02080063
:10079A0073080319D52B720871047004031DE82B22
:1007AA000030F0000030F1000030F20008000130A3
:1007BA00F5007508F30701300310F20CF10CF00C88
:1007CA00FF3E031DE12BFE3072050319032CDC2BBF
:1007DA000130F5007508F3070130F00700300318FF
:1007EA000130F107003003180130F207013003101D
:1007FA00F20CF10CF00CFF3E031DFC2BFF307205CE
:10080A000319122CED2B0130F30201300310F00D05
:10081A00F10DF20DFF3E031D0B2CF11B182C0230BB
:10082A0073020318082C7318202CFF30F0057F3050
:10083A00F105FF30F2050310F30C7308F500F60119
:10084A00F70110300310F50DF60DF70DFF3E031DED
:10085A00272C7508F0047608F1047708F204740866
:10086A0003190800F21708007008F4007108F5006F
:10087A007208F6000310750D760DF7007708FD0073
:10088A007D08031D512C0030F3000030F2000030C7
:10089A00F1000030F00008007008F4007108F5005B
:1008AA007208F60017300310F60CF50CF40CFF3E34
:1008BA00031D582C7408F7007708F800F117FF3069
:1008CA00F005FF30F1050030F2057008F9007108F3
:1008DA00FA007208FB00FC018E30FD02FD1F932C0A
:1008EA007D08803A8F3E0318832C0030F3000030D5
:1008FA00F2000030F1000030F0000800013003106F
:10090A00FC0CFB0CFA0CF90CFF3E031D842C013085
:10091A00F4007408FD070319AE2C832C18307D02ED
:10092A00031CAB2C0030F3000030F2000030F10061
:10093A000030F00008000130F4000310F90DFA0D40
:10094A00FB0DFC0DF40BA22C0130FD027D08031DEA
:10095A00A02C78080319BC2CF909FA09FB09FC092F
:10096A00F90A0319FA0A0319FB0A0319FC0A7C0893
:10097A00F3007B08F2007A08F1007908F000080019
:10098A007B0883120313A0007C08A1007D08A20043
:10099A000310210D220DA3002308A8002808031D17
:1009AA00DD2C0030F8000030F9000030FA000800B1
:1009BA007808A0007908A1007A08A2000310210D86
:1009CA00220DA3002308A9002908031DF32C0030D7
:1009DA00F8000030F9000030FA0008000030A500E5
:1009EA000030A6000030A70089302907A00020089F
:1009FA00A8027B08A0007C08A1007D08A200103094
:100A0A000310A20CA10CA00CFF3E031D052D20080B
:100A1A00A3002308A9007808A0007908A1007A0891
:100A2A00A20010300310A20CA10CA00CFF3E031D63
:100A3A00172D2008A3002308A9068030A00020084B
:100A4A00A905FC17FF30FB05FF30FC050030FD054A
:100A5A00F917FF30F805FF30F9050030FA051830AC
:100A6A00A0002008A40001300310A50DA60DA70DB3
:100A7A00FF3E031D392D7A087D02031D4A2D790890
:100A8A007C02031D4A2D78087B02031C572D780827
:100A9A00FB027908031C790FFC027A08031C7A0A04
:100AAA00FD02251401300310FB0DFC0DFD0DFF3E68
:100ABA00031D582D0130A402031D382D2508F0000E
:100ACA002608F1002708F2002808A0002008F300F1
:100ADA002908A1002108F400CD237008F800710844
:100AEA00F9007208FA0008000E30F0000030F10038
:100AFA000D230130831603138500860138308312D3
:100B0A000313B6008630B7003B30B80013278312B0
:100B1A000313860100304023710883120313BF00B8
:100B2A007008BE003F08F1003E08F0000030F200F5
:100B3A00F3002D23701CA52D831203131716A82D5D
:100B4A008312031317123F08F1003E08F000013028
:100B5A00F2000030F3002D23701CB72D831203130B
:100B6A009716BA2D8312031397123F08BA003E084C
:100B7A00B9000310BA0CB90C0310BA0CB90C390835
:100B8A009500E430A000A030A1003B30A2003F084D
:100B9A00F9003E08F8001B23780883120313A30008
:100BAA007908A4007A08A5004226831203132008B4
:100BBA00BB002108BC002208BD003B08AA003C0873
:100BCA00AB003D08AC000030AD008030AE003F30D5
:100BDA00AF006E230318F62D831203130614E930AF
:100BEA00372E831203133B08AA003C08AB003D08CA
:100BFA00AC000030AD000030AE004030AF006E23D4
:100C0A0003180C2E831203138614EA30372E83122C
:100C1A0003133B08AA003C08AB003D08AC000030B7
:100C2A00AD004030AE004030AF006E230318222ED4
:100C3A00831203130615EC30372E831203133B0875
:100C4A00AA003C08AB003D08AC000030AD00803083
:100C5A00AE004030AF006E2303183B2E83120313FD
:100C6A000616F830B900390886058F2D1730831219
:100C7A000313B900390886048F2D83120313200841
:100C8A00A6002108A7002208A8000310270D280D96
:100C9A00A9002908AA002A08031D5A2E0030A0001C
:100CAA000030A1000030A20008002308A600240892
:100CBA00A7002508A8000310270D280DA900290858
:100CCA00AF002F08031D702E0030A0000030A100D5
:100CDA000030A20008002F087B3EA6002608AA07BB
:100CEA002008A6002108A7002208A8001030031037
:100CFA00A80CA70CA60CFF3E031D7C2E2608A900F3
:100D0A002908AF002308A6002408A7002508A80080
:100D1A0010300310A80CA70CA60CFF3E031D8E2E44
:100D2A002608A9002908AF068030A6002608AF05C4
:100D3A00A117A417FF30A305FF30A4050030A505AD
:100D4A000030AB000030AC000030AD000730A60028
:100D5A002608AE00201CBF2E2308AB072408031167
:100D6A000318240A031DAC07250803110318250AD2
:100D7A00031DAD0701300310A20CA10CA00CFF3E0D
:100D8A00031DC02E01300310A30DA40DA50DFF3EB7
:100D9A00031DC82E0130AE02031DAF2E0930A60076
:100DAA002608AE00201CE72E2308AB0724080311EF
:100DBA000318240A031DAC07250803110318250A82
:100DCA00031DAD0701300310A20CA10CA00CFF3EBD
:100DDA00031DE82E01300310AD0CAC0CAB0CFF3E2A
:100DEA00031DF02E0130AE02031DD72E2B08F00092
:100DFA002C08F1002D08F2002A08A6002608F300A4
:100E0A002F08A7002708F400CD23700883120313C4
:100E1A00A0007108A1007208A20008000030F800C2
:100E2A008030F9004030FA00831203133608FB00C1
:100E3A003708FC003808FD00C5247808831203131C
:100E4A00B6007908B7007A08B8002430A0007430D8
:100E5A00A1004A30A2003608A3003708A4003808C7
:100E6A00A5004226831203132008B6002108B70002
:100E7A002208B8000030F8008030F9004330FA0048
:100E8A003608FB003708FC003808FD00C52478083E
:100E9A0083120313AA007908AB007A08AC00003069
:100EAA00AD008030AE004130AF006E230318EE2F44
:100EBA000030F8008030F9004330FA00831203133F
:100ECA003608FB003708FC003808FD00C5247808FE
:100EDA0083120313AA007908AB007A08AC00003029
:100EEA00AD008030AE004030AF006E23031C872F68
:100EFA0083120313921412140030F8008030F900A0
:100F0A004130B02F0030F8008030F9004330FA0049
:100F1A00831203133608FB003708FC003808FD006B
:100F2A00C524780883120313AA007908AB007A084B
:100F3A00AC000030AD008030AE003F30AF006E2311
:100F4A00031CC12F83120313921012140030F800ED
:100F5A008030F9004030FA003608FB003708FC0000
:100F6A003808FD00C524780883120313B6007908EF
:100F7A00B7007A08B800E52F0030F8008030F90091
:100F8A004330FA00831203133608FB003708FC00CB
:100F9A003808FD00C524780883120313AA007908CB
:100FAA00AB007A08AC000030AD000030AE00003073
:100FBA00AF006E23031CEE2F83120313921012103C
:100FCA003608F0003708F1003808F20039247008B2
:100FDA00F32F8312031392141214FF308316031390
:100FEA0092008312031312159715171597101710ED
:060FFA0008008301792DBF
:02400E0042EF7F
:00000001FF
