:02000000FE2FD1
:100B4400831203131F141F139F178E30831603136E
:100B54009F0008007808F0007908F100F2018E3057
:100B6400FB007B08F300F4014B267008F8007108C1
:100B7400F9007208FA000800F40008307402031C3B
:100B8400C62DF001F1010800C530F200720883128D
:100B940003139F057408F20002300310F20DFF3EA8
:100BA400031DCF2D0310720DF30073089F0403304F
:100BB400F3009730F200F20BDD2DF30BDD2DE22D67
:100BC400831203131F151F19E52D1E08F100831648
:100BD40003131E08F0000800F21F152E0030F60063
:100BE4000030F7008030F8007009F9007109FA004C
:100BF4007209FB00F90A0319FA0A0319FB0A7908B6
:100C0400F6077A0803187A0F082E092EF7077B08CF
:100C140003187B0F0E2E0F2EF8077608F0007708C6
:100C2400F1007808F200F51F3C2E0030F600003089
:100C3400F7008030F8007309F9007409FA007509A7
:100C4400FB00F90A0319FA0A0319FB0A7908F607E3
:100C54007A0803187A0F2F2E302EF7077B08031813
:100C64007B0F352E362EF8077608F3007708F4004C
:100C74007808F5008030F2068030F50675087202B7
:100C8400031D080074087102031D08007308700234
:100C9400080073080319532E720871047004031DAD
:100CA400662E0030F0000030F1000030F200080041
:100CB4000130F5007508F30701300310F20CF10C54
:100CC400F00CFF3E031D5F2EFE3072050319812ECA
:100CD4005A2E0130F5007508F3070130F007003093
:100CE40003180130F107003003180130F207013016
:100CF4000310F20CF10CF00CFF3E031D7A2EFF30B2
:100D040072050319902E6B2E0130F302013003108B
:100D1400F00DF10DF20DFF3E031D892EF11B962EF1
:100D2400023073020318862E73189E2EFF30F005CE
:100D34007F30F105FF30F2050310F30C7308F50062
:100D4400F601F70110300310F50DF60DF70DFF3E17
:100D5400031DA52E7508F0047608F1047708F20443
:100D6400740803190800F2170800A225013083163D
:100D7400031385008601831203138601CB2E0130F1
:100D8400C82E0230C82E0430C82E1030831203132C
:100D94008600E430A000A030A1003B30A200003067
:100DA400BE257108F9007008F800AC257808831294
:100DB4000313A3007908A4007A08A5002D27831241
:100DC40003132008B0002108B1002208B20000304B
:100DD400F0008030F1003F30F2003008F3003108B9
:100DE400F4003208F500EE250318C12E0030F0009F
:100DF4000030F1004030F200831203133008F30096
:100E04003108F4003208F500EE250318C32E003033
:100E1400F0004030F1004030F20083120313300838
:100E2400F3003108F4003208F500EE250318C52E4E
:100E34000030F0008030F1004030F20083120313E0
:100E44003008F3003108F4003208F500EE250318E9
:100E5400C72E1730C82E831203132008A6002108BA
:100E6400A7002208A8000310270D280DA9002908AF
:100E7400AA002A08031D452F0030A0000030A1005D
:100E84000030A20008002308A6002408A7002508B3
:100E9400A8000310270D280DA9002908AF002F086A
:100EA400031D5B2F0030A0000030A1000030A20021
:100EB40008002F087B3EA6002608AA072008A600E3
:100EC4002108A7002208A80010300310A80CA70CC2
:100ED400A60CFF3E031D672F2608A9002908AF00B2
:100EE4002308A6002408A7002508A8001030031032
:100EF400A80CA70CA60CFF3E031D792F2608A900F9
:100F04002908AF068030A6002608AF05A117A4174C
:100F1400FF30A305FF30A4050030A5050030AB0069
:100F24000030AC000030AD000730A6002608AE004B
:100F3400201CAA2F2308AB07240803110318240A32
:100F4400031DAC07250803110318250A031DAD076B
:100F540001300310A20CA10CA00CFF3E031DAB2F0B
:100F640001300310A30DA40DA50DFF3E031DB32FE7
:100F74000130AE02031D9A2F0930A6002608AE00E8
:100F8400201CD22F2308AB07240803110318240ABA
:100F9400031DAC07250803110318250A031DAD071B
:100FA40001300310A20CA10CA00CFF3E031DD32F93
:100FB40001300310AD0CAC0CAB0CFF3E031DDB2F5A
:100FC4000130AE02031DC22F2B08F0002C08F100E3
:100FD4002D08F2002A08A6002608F3002F08A7000F
:100FE4002708F4004B26700883120313A00071082D
:0C0FF400A1007208A20008008301B72EC3
:02400E0042FF6F
:00000001FF
