:020000001028C6
:10000800FE00030EF0000408F1000A08F200831253
:1000180003137F08F3007B2B1128F90183012B2997
:1000280083120313B5002A30AE002E08B200013047
:10003800A907FF30290784003322AE002E08B80034
:1000480038080319262925303806031937283808AF
:10005800AE00350884002E08831380000130AE00FE
:100068002E08B5071B28B4013B28B41752280130C5
:10007800A907FF30290784003322B800003A031982
:100088002629583A031939283C3A031952280D3AB7
:1000980003195228113A031939281B28B41B6C2854
:1000A8003208840083130008B600840A0008B700E9
:1000B8000230AE002E08B207B71FB1280330AE00D9
:1000C8002E08B404B609B709B60A0319B70AB12845
:1000D8003208840083130008B600840A0008B700B9
:1000E8000230AE002E08B207B128B801B80A0530B0
:1000F80038060319BA283808AE002E07013E8400D6
:100108003322AF003322B00030083702031D8E2897
:100118002F083602031CBA280130AE002E08B80793
:100128007B28B801B80A043038060319BA283808F9
:10013800AE002E070B3E84003322AF003322B000FE
:1001480030083702031DAA282F083602031CBA28D4
:100158000130AE002E08B807972834088039003AD5
:1001680003197928803A03199528BA2834080339DD
:100178000319C9282D30AE00350884002E088313D2
:1001880080000130AE002E08B5073808AE002E08F2
:10019800B30015290A30A3000030A4003308AE00CC
:1001A8002E07013E84003322F4003322F50037087D
:1001B800F7003608F6007422750883120313A600A8
:1001C8007408A500E722831203132308303EAF000A
:1001D8002F0809293308AE002E070B3E840033226E
:1001E800F4003322F5003708F7003608F6007422C9
:1001F80074080F3983120313AF002F08B1003108B8
:10020800133E84003322AE002E08B8003808AE0032
:10021800350884002E08831380000130AE002E08B4
:10022800B507FF30AE002E08B307330A03191B28A1
:1002380034088039003A0319CE28803A0319EE2889
:100248000A290A29350884008313800108008316C7
:1002580003138501860183120313860185018B1719
:100268000B17831603130C14831203131014901026
:10027800101690168221AC2383120313CC01CD01F2
:100288003430AD008030AE00B22202308312031346
:10029800AA000030AB000130AC000030AD004F23A5
:1002A800243083120313B9003908A9004D08AB00A4
:1002B8004C08AA004D08AD004C08AC003A30142098
:1002C8003A3083120313AD000030AE00B222F91C9D
:1002D8006B29F910791C80297910013083120313D6
:1002E80086060130CC070318CD0A0030CD07AC23B1
:1002F800343083120313452979146B2983120313AD
:1003080006128612061386130611861014308312FD
:100318000313AD007930AC00AC0B9029AD0B9029DC
:100328000000033083120313A3000030A400D72178
:10033800073083120313AD007C30AC00AC0BA2294C
:10034800AD0BA229A729023083120313A3000030A2
:10035800A400D721C73083120313AC00B329AC0B18
:10036800B229B6290000003083120313A500A600A5
:100378002830A7000030A8001B2300308312031385
:10038800A500A6000C30A7000030A8001B23AC2352
:10039800003083120313A500A6000630A700003022
:1003A800A8001B230800831203132408F500230860
:1003B800F4000030F600F7009523741CE729831237
:1003C80003130616EA298312031306122408F500FC
:1003D8002308F4000130F6000030F7009523741C60
:1003E800F929831203138616FC2983120313861234
:1003F8002408F5002308F4000230F6000030F70066
:100408009523741C0B2A8312031306170E2A8312D2
:10041800031306132408F5002308F4000330F6003C
:100428000030F7009523741C1D2A831203138617C6
:10043800202A83120313861386140330F800F80B5E
:10044800232A8312031386100800FF1B332A831301
:100458007F1883170008840A0319FF0A080002306E
:100468008A000408840A82070034013400340A34FC
:10047800003464340034E83403341034273401344D
:100488000034103400340034013400341034303473
:100498003134323433343434353436343734383410
:1004A80039344134423443344434453446340034D6
:1004B8004434653463343A34203425346434203485
:1004C8004834653478343A34203425345834003488
:1004D80043346F3475346E34743465347234003494
:1004E80083120313A001A101740875040319AD2A2E
:1004F800A201A20AF51B8C2A01300310F40DF50D98
:10050800FF3E031D812A0130F8007808A2077E2AE1
:1005180001300310A00DA10DFF3E031D8D2A7508A3
:100528007702031D992A74087602031CA22A74080C
:10053800F6027508031CF703F702201401300310B4
:10054800F50CF40CFF3E031DA32A0130A202031D83
:100558008C2A2108F5002008F400080083120313F0
:10056800B201B30132082D07B0002E08AF000318FE
:10057800AF0AB21BAF03831203132F08B10031086F
:10058800FF00300884002922003A031908003208C5
:100598002D07B0002E08AF000318AF0AB21BAF0337
:1005A800831203132F08B1003108FF0030088400BC
:1005B8002922C223013083120313B2070318B30A96
:1005C8000030B307B62A831203132308240403193F
:1005D800162BA801A80AA41BFD2A01300310A30D9D
:1005E800A40DFF3E031DF22A0130A7002708A80723
:1005F800EF2A24082602031D032B23082502031CC7
:100608000B2B2308A5022408031CA603A60201300D
:100618000310A40CA30CFF3E031D0C2B0130A802F1
:10062800031DFD2A2608A4002508A300080083123C
:100638000313251C232B831203130615262B831261
:1006480003130611203083120313A900A90B2A2BC8
:100658002D2B831203138610270E0F39A300280EA3
:10066800F039A304280E0F39A400F030A41D00307F
:10067800A404D7210F30831203132705A3000030E9
:100688002805A400D7210C3083120313A900A90B55
:100698004B2B4E2B080083120313AE01AF012A0324
:1006A8002B04031D5B2B8030AE000030AF000230FE
:1006B8002A062B04031D642BC030AE000030AF00A7
:1006C8002C082E07AE002D0803182D0A2F07AF009F
:1006D800FF30AE070318AF0AFF30AF070030A500A0
:1006E800A6002F08A8002E08A7001B2308008316C1
:1006F80003130C1C892B831203130C1C892B0C105D
:100708000B308F00E0308E00F91473088312FF005D
:1007180072088A0071088400700E8300FE0E7E0E37
:100728000900760A83120313A0007508A200740852
:10073800A100A12B220DA20CA10CA00B9E2B013015
:10074800831203132105F40000302205F500080088
:10075800003083120313A500A6000130A700003063
:10076800A8001B23033083120313AB009730AA00A1
:10077800AA0BBC2BAB0BBC2B000008008312031385
:10078800AC000130A5000030A6002C08AA00AB017F
:0C0798002A08A7002B08A8001B2308005B
:02400E0042FF6F
:00000001FF
